:020000040800F2
:100000000000022025470008650200086902000878
:100010006D0200087102000875020008000000006F
:10002000000000000000000000000000790200084D
:100030007D0200080000000081020008850200081F
:100040006D4700086D4700086D4700086D470008C0
:100050006D4700086D4700086D4700086D470008B0
:100060006D4700086D4700086D4700086D470008A0
:100070006D4700086D4700086D4700086D47000890
:100080006D4700086D4700086D4700086D47000880
:100090006D4700086D4700086D4700086D47000870
:1000A0006D4700086D4700086D4700086D47000860
:1000B0006D4700086D4700086D4700086D47000850
:1000C0006D4700086D4700086D4700086D47000840
:1000D0006D4700086D4700086D4700086D47000830
:1000E0006D4700086D470008592000086D4700085B
:1000F0006D4700086D4700086D4700086D47000810
:100100006D4700086D4700086D4700086D470008FF
:100110006D4700086D4700086D4700086D470008EF
:100120006D4700086D4700086D4700086D470008DF
:100130006D4700086D4700086D4700086D470008CF
:100140006D4700086D4700086D47000861200008F2
:100150006D4700086D4700086D4700086D470008AF
:100160006D4700086D4700086D4700086D4700089F
:100170006D4700086D4700086D4700086D4700088F
:080180006D4700086D470008FF
:1001C00008B5074804F008FB064B1A6812B11A6814
:1001D000013A1A60044A13680133136008BD00BF76
:1001E00080E30008780C00207C0C0020704700BFE2
:1001F00030B5012183B0082000F052FD4FF4704566
:100200000023032201246946064800958DF8044026
:100210008DF806308DF807308DF8052000F0BEFE11
:1002200003B030BD000C02400A4B0B491B680B4A5F
:1002300030B4A1FB03130A4C9B09F025013B53602A
:10024000002084F823500721906030BC1160FFF734
:10025000CFBF00BF10000020D34D621010E000E0BF
:1002600000ED00E0704700BFFEE700BFFEE700BF03
:10027000FEE700BFFEE700BF704700BF704700BF4A
:10028000704700BFFFF79CBF354B36481A68002106
:1002900042F001021A6099601A6822F0847222F416
:1002A00080321A6058601A6882B022F480221A6084
:1002B000D960009101911A6842F480321A601A469E
:1002C00003E0009BB3F5A06F09D0136803F400337B
:1002D0000193009B01330093019B002BF1D0204B35
:1002E0001B6813F4003318BF01230193019B012BFA
:1002F00005D01D4B4FF000629A6002B07047184B5A
:100300001A491A6C1A4842F080521A640A6842F478
:1003100080420A609A689A609A6842F400429A6041
:100320009A6842F4A0529A6058601A6842F080724B
:100330001A601A689201FCD50E49094A40F205601C
:100340000860996821F003019960996841F0020101
:100350009960936803F00C03082BFAD1C9E700BF3A
:10036000003802401030002400ED00E00070004032
:1003700008544007003C0240154A936803F00C0300
:10038000042B23D0082B09D0124B114A1249926832
:10039000C2F303128A5CD3400B6170475068516806
:1003A00052684302C2F3881201F03F014CBF0B4B6D
:1003B000084BB3FBF1F303FB02F3054A5268C2F3A7
:1003C000014201325200B3FBF2F3DEE7034BDCE7FC
:1003D000003802400024F4000000002000127A00DF
:1003E0002DE9F04186B00D4600230021ADF8143010
:1003F000044603F05DFF20B12D2304F100448DF885
:10040000143020460DF06EF98046284603F05EFD5C
:10041000014611480DF0AAF90746204603F086FF71
:1004200041460646204603F09BFC394603F0A2FDF8
:100430004FF07C5103F096FC03F078FF33460290B6
:10044000CDE9005505AA0549054804F04DFA0448D0
:1004500006B0BDE8F08100BF000020419CE3000829
:10046000FC0A002058E7000800000020FC0A0020D9
:10047000FC0A0020B81C0020000000000000000062
:1004800090F800F06DE9024520F007016FF0000CD4
:1004900010F0070491F820F040F049804FF000047C
:1004A0006FF00700D1E9002391F840F000F1080057
:1004B00082FA4CF2A4FA8CF283FA4CF3A2FA8CF38F
:1004C0004BBBD1E9022382FA4CF200F10800A4FAF6
:1004D0008CF283FA4CF3A2FA8CF3E3B9D1E904234A
:1004E00082FA4CF200F10800A4FA8CF283FA4CF381
:1004F000A2FA8CF37BB9D1E9062301F1200182FA3B
:100500004CF200F10800A4FA8CF283FA4CF3A2FA40
:100510008CF3002BC6D0002A04BF04301A4612BA4E
:10052000B2FA82F2FDE8024500EBD2007047D1E951
:10053000002304F00305C4F100004FEAC50514F0E0
:10054000040F91F840F00CFA05F562EA05021CBFB1
:1005500063EA050362464FF00004A9E700000000CB
:1005600001F0FF01102A2BDB10F0070F08D010F864
:10057000013B013A8B422DD010F0070F42B3F6D168
:10058000F0B441EA012141EA014122F007047FF081
:1005900000070023F0E80256083C85EA010586EAD8
:1005A000010685FA47F5A3FA87F586FA47F6A5FA14
:1005B00087F68EB9EED1F0BC01F0FF0102F0070220
:1005C00032B110F8013B013A83EA010313B1F8D1CB
:1005D0000020704701387047002D06BF35460338AC
:1005E000073815F0010F07D1013015F4807F02BFE5
:1005F000013015F4C03F0130F0BC0138704700BF36
:10060000844641EA000313F003036DD1403A41D31D
:1006100051F8043B40F8043B51F8043B40F8043BDC
:1006200051F8043B40F8043B51F8043B40F8043BCC
:1006300051F8043B40F8043B51F8043B40F8043BBC
:1006400051F8043B40F8043B51F8043B40F8043BAC
:1006500051F8043B40F8043B51F8043B40F8043B9C
:1006600051F8043B40F8043B51F8043B40F8043B8C
:1006700051F8043B40F8043B51F8043B40F8043B7C
:1006800051F8043B40F8043B51F8043B40F8043B6C
:10069000403ABDD2303211D351F8043B40F8043B0C
:1006A00051F8043B40F8043B51F8043B40F8043B4C
:1006B00051F8043B40F8043B103AEDD20C3205D31C
:1006C00051F8043B40F8043B043AF9D2043208D014
:1006D000D2071CBF11F8013B00F8013B01D30B8886
:1006E00003806046704700BF082A13D38B078DD064
:1006F00010F003038AD0C3F10403D21ADB071CBF36
:1007000011F8013B00F8013B80D331F8023B20F89F
:10071000023B7BE7043AD9D3013A11F8013B00F8D8
:10072000013BF9D20B7803704B7843708B78837060
:10073000604670470000000000000000000000005C
:10074000A2EB0300704700BF02780B78012A28BF94
:100750009A42F5D16DE9044540EA0104CDE902670A
:100760006FF0000C4FEA447212B380EA010414F0F7
:10077000070F6AD100F0070420F0070004F003051A
:1007800021F007014FEAC505F0E8042314F0040F37
:10079000F1E804670CFA05F462EA040266EA04066A
:1007A0000AD063EA0403624667EA0407664603E088
:1007B000F0E80423F1E8046782FA4CF582EA0604C3
:1007C000A4FA8CF46CBB83FA4CF583EA0705A5FA0E
:1007D0008CF595B950E9022351E9026782FA4CF58C
:1007E00082EA0604A4FA8CF483FA4CF583EA07053E
:1007F000A5FA8CF52543DBD09CB92DBAB5FA85F462
:1008000024F0070427FA04F1DDE9026723FA04F370
:1008100003F0FF0001F0FF01FDE80445A0EB01003B
:10082000704724BAB4FA84F424F0070426FA04F1D9
:10083000DDE9026722FA04F202F0FF0001F0FF0195
:10084000FDE80445A0EB0100704714F0030F3CD114
:1008500010F0030428D150F8082B51F8083B82FA15
:100860004CF582EA0305A5FA8CF55DB950F8042C25
:1008700051F8043C82FA4CF582EA0305A5FA8CF59E
:10088000002DE8D02DBAB5FA85F424F0070423FA38
:1008900004F122FA04F202F0FF0001F0FF01FDE88A
:1008A0000445A0EB010070474FEAC40420F00300A8
:1008B00050F8082B21F0030151F8083B0CFA04F41E
:1008C00062EA040263EA0403C9E710F003041AD0E1
:1008D000A1EB040120F00300E40750F8042B06D03C
:1008E0000FD28B785FFAA2F4E41A06D12BB1CB7841
:1008F0005FFAB2F4E41A00D11BB920465DF8104B40
:10090000704701F1040150F8042BCC0721F00301DA
:1009100051F8043B48D824D222F07F4482FA4CF5A7
:1009200094EA1325A5FA8CF50AD165B951F8043B70
:1009300084EA0204B4EB036F0ED150F8042BEBE70A
:100940004FEA132355E035F07F454DD10878FDE897
:100950000445C0F1000070474FEA126203F0FF0344
:1009600047E002EA1C4482FA4CF594EA1345A5FAE2
:100970008CF50AD165B951F8043B84EA0204B4EB62
:10098000034F0CD150F8042BEBE74FEA134330E050
:1009900015EA1C4528D10B884FEA124229E04FEA9C
:1009A000124203EA1C4324E002F0FF0482FA4CF5F1
:1009B00094EA1365A5FA8CF50AD165B951F8043BA0
:1009C00084EA0204B4EB032F09D150F8042BEBE7BF
:1009D0004FEA13630DE015F0FF0F05D10B684FEAE6
:1009E000122223F07F4304E04FF00000FDE80445AD
:1009F000704712BA1BBA82FA4CF482EA0304A4FAD2
:100A00008CF5B5FA85F402FA04F203FA04F34FEA1E
:100A10001260FDE80445A0EB136070470A4B0B48D9
:100A20001A68002142F001021A6099601A6822F0E7
:100A3000847222F480321A6058601A6822F480228C
:100A40001A60D960704700BF00380240103000249F
:100A5000024B00221A701870704700BF0238024023
:100A600082B00023094A0193136813F4003F019BED
:100A700003F101030193019B02D1B3F5A06FF3D100
:100A8000024B1868C0F3404002B070470038024083
:100A9000034A136823F0F80343EAC000106070476C
:100AA00000380240014B1860704700BF0000474209
:100AB000064B002201281A701A7005D0042802D1B2
:100AC00005221A70704770471870704770380240DE
:100AD000014B1860704700BF800E474230B4029C43
:100AE000064D40EA04605B080843013B40EA82107F
:100AF00040EA0340686030BC704700BF00380240E5
:100B0000014B1860704700BF600047420907034B64
:100B100041EA8011C3F88410704700BF00380240DA
:100B2000014B1860704700BF68004742014B1860D6
:100B3000704700BF4C004742034A936823F0EC63C0
:100B4000194301439160704700380240034A93689B
:100B500023F0784319430143916070470038024005
:100B6000034A936823F0030318439060704700BF63
:100B700000380240024B986800F00C00704700BF3C
:100B800000380240034A936823F0F0031843906052
:100B9000704700BF00380240034A936823F4E053D3
:100BA00018439060704700BF00380240034A9368C2
:100BB00023F4604343EAC00090607047003802406D
:100BC0001E4A936803F00C03042B10B433D0082B97
:100BD00018D01B4B0360194A1A499468C4F30314D4
:100BE0000C5DE34043609468C4F382240C5D23FAF7
:100BF00004F48460926810BCC2F342328A5CD34031
:100C0000C36070475468516852686302C2F3881227
:100C100001F03F014CBF0C4B094BB3FBF1F303FB5D
:100C200002F3064A5268C2F3014201325200B3FB9A
:100C3000F2F30360CFE7044B0360CCE700380240D7
:100C40000024F4001400002000127A0000F4407325
:100C5000B3F5407F09D108498A6820F0704322F437
:100C6000F81223F4407313438B60034B1A6FC0F3E5
:100C70000B0010431867704700380240014B1860A2
:100C8000704700BF3C0E4742014B1860704700BFE1
:100C9000400E4742014B1860704700BF5C0147425D
:100CA000044A136B19B923EA000010637047184314
:100CB0001063704700380240044A536B19B923EAA5
:100CC000000050637047184350637047003802407B
:100CD000044A936B19B923EA0000906370471843E4
:100CE0009063704700380240044A136C19B923EA34
:100CF00000001064704718431064704700380240C9
:100D0000044A536C19B923EA000050647047184331
:100D10005064704700380240044A136919B923EA45
:100D2000000010617047184310617047003802409E
:100D3000044A536919B923EA000050617047184307
:100D40005061704700380240044A936919B923EA98
:100D5000000090617047184390617047003802406E
:100D6000044A136A19B923EA000010627047184355
:100D70001062704700380240044A536A19B923EAE6
:100D800000005062704718435062704700380240BC
:100D9000044A136D19B923EA00001065704718431F
:100DA0001065704700380240044A536D19B923EAB0
:100DB0000000506570471843506570470038024086
:100DC000044A936D19B923EA0000906570471843EF
:100DD0009065704700380240044A136E19B923EA3F
:100DE00000001066704718431066704700380240D4
:100DF000044A536E19B923EA00005066704718433D
:100E00005066704700380240044A137819B923EA43
:100E10000000107070471843107070470D38024082
:100E20004309012B0BD0022B094B0CBF1B6F5B6FCF
:100E300000F01F0023FA00F000F001007047044B9F
:100E40001B6800F01F0023FA00F000F0010070475B
:100E500000380240024A536F43F080735367704773
:100E600000380240034BDB68184214BF0120002009
:100E7000704700BF00380240014B1870704700BF38
:100E80000E38024008B53C4B984222D03B4B98426A
:100E900029D03B4B984230D03A4B984237D03A4B0E
:100EA00098420CD0394B98423BD0394B984242D0B3
:100EB000384B984255D0384B984246D008BD012156
:100EC0001020FFF729FF00211020BDE80840FFF7A0
:100ED00023BF01210846FFF71FFF00210120BDE8C5
:100EE0000840FFF719BF01210220FFF715FF00217D
:100EF0000220BDE80840FFF70FBF01210420FFF7E3
:100F00000BFF00210420BDE80840FFF705BF0121C9
:100F10000820FFF701FF00210820BDE80840FFF787
:100F2000FBBE01212020FFF7F7FE00212020BDE8B5
:100F30000840FFF7F1BE01214020FFF7EDFE002140
:100F40004020BDE80840FFF7E7BE01214FF4807064
:100F5000FFF7E2FE00214FF48070BDE80840FFF784
:100F6000DBBE01218020FFF7D7FE00218020BDE8F5
:100F70000840FFF7D1BE00BF00000240000402405D
:100F800000080240000C0240001002400014024021
:100F900000180240001C0240002002402DE9F047EA
:100FA000D1F800C0002301274FF0030E02E0013307
:100FB000102B3FD007FA03F232EA0C04F7D15C00A1
:100FC000D0F800800E790EFA04F5ED4308EA050822
:100FD000C0F80080D0F800A006FA04F9013E49EA02
:100FE0000A09012E0EFA04F8C0F8009016D8D0F8BD
:100FF00008904E7905EA09058560D0F808908D794A
:10100000A64046EA09068660466826EA0202426071
:10101000466805FA03F292B232434260C568CA7963
:1010200025EA0805C560C568A24001332A43102B94
:10103000C260BFD1BDE8F08700234FF6FF720260A7
:10104000037143718371C371704700BF82B04FF465
:1010500080330193019B0B430193019BC361C161E9
:10106000019BC361C3690193C369019302B07047D7
:101070000369194214BF012000207047006980B243
:10108000704700BF4369194214BF01200020704718
:10109000406980B2704700BF018370474183704749
:1010A0000AB9418370470183704700BF41617047AF
:1010B0004369594041617047CB0800EB830001F060
:1010C000070110B4036A89000F248C4023EA04034B
:1010D0000362036A10BC02FA01F11943016270470E
:1010E0000B4A13687F2B30B488BF0023094D88BF9B
:1010F0001360094CEB5C0370136821680020E8540E
:101100000139013321600320136030BC704700BFF8
:10111000B00C0020B40C0020AC0C002030B583B023
:10112000094B0093094A0A4B0A480B4D0B4C01210D
:1011300000F0B4FB0A490B4B00200122286020601C
:1011400008601A7003B030BD28010020080100209B
:101150006C000020340D0020A80C0020B00C0020F2
:10116000AC0C0020600B0020024B1868B0FA80F035
:1011700040097047AC0C0020034B1868A0F18000B8
:10118000B0FA80F040097047AC0C002010B4104A4F
:10119000104B12881B8883B08DF807009AB10E4C53
:1011A00001E09BB27AB1802B08BF00239DF80710A5
:1011B000E05C013A884203F1010392B2F1D10120CF
:1011C00003B010BC7047104603B010BC704700BF9E
:1011D000AC0C0020B00C0020B40C0020034B1B68AA
:1011E00003B17DE703700420704700BFAC0C002002
:1011F00000B585B001218DF8070004A89DF80730DF
:1012000000F8013D00F0E2F9002005B05DF804FBB4
:10121000037883B110B5044682B001210DF10700B7
:101220008DF8073000F0D2F914F8013F002BF4D10B
:10123000002002B010BD0020704700BF08B500F0CC
:10124000C5F9002008BD00BFF0B51F4D2B6883B065
:101250002BB31E4A9CB21288FCB11D4F01E092B222
:10126000DCB1802A08BF0022013CBE5C0A2E02F1DC
:101270000102A4B2F3D14F1E002FD8BF00241DDD00
:101280000646002404E0FFF72BFF03280BD02B6851
:101290000DF10700002BF6D1FEE7802BEBD00024E8
:1012A000204603B0F0BD9DF8073033550134A4B299
:1012B0000A2B06EB040001D0BC42E8DB00230370DC
:1012C000204603B0F0BD00BFAC0C0020B00C0020E5
:1012D000B40C00200A490B687F2B0FD870B4094C5E
:1012E000094D22687F2A8ABF0022561C012601333D
:1012F000A854266000200B6070BC70470220704725
:10130000AC0C0020A80C0020B40C0020034B1B7870
:1013100013B1034B1878704701207047600B002011
:1013200024010020064B1A6802609A7942715979AB
:101330001A7981710271DA79C2710020D87170470F
:101340009800002010B5074C2068FF2807D0064AF7
:10135000064B12689B6806499847FF2323600020CC
:1013600010BD00BF24000020640B0020A00000205E
:10137000AC13002043230B80004870472800002056
:1013800038B51B4C6368052B03D05A1C62600020E3
:1013900038BD237A0025012B6560F8D0D4E903130A
:1013A000B1F5006F1CD099421FD0124A98BF5B1A4A
:1013B00012FA81F288BFC1F50063402B0BD9403B84
:1013C00040316361E160402301258121257201F0F4
:1013D0001BFC002038BD19440025E1606561F3E77E
:1013E000E56013B1034A2946E7E700232372CEE7FD
:1013F000640B0020B413002038B501EB8101094DC6
:10140000094B00EBC1010446B1F88C131B69284657
:1014100098472A4620464023012101F0CDFB0020B9
:1014200038BD00BF6C130020A0000020F8B50B7879
:1014300013F060040D46064610D0202C0AD1CC884B
:101440004F7864BB274B38469B6822462146984715
:101450002046F8BD00F00CFD0220F8BD4B780A2BA9
:1014600017D00B2B03D0062B08D02046F8BD8B7865
:10147000002B33D11C4A18469361F8BD4B881B0AD8
:10148000212B25D019493A22304600F08BFA002052
:10149000F8BD0122164900F085FA2046F8BD1B066A
:1014A0000CD5104B13499B68224638469847EA886A
:1014B0001049304600F076FA0020F8BD0E4A0A4B7B
:1014C00017600C491C60224600F084FA0020F8BD29
:1014D000CA880A493A2A28BF3A22D5E700F0C8FC50
:1014E0002046F8BDA0000020640B00203100002041
:1014F0007C0B0020AC130020240000203A000020C8
:1015000010B58121044601F03FFB2046012101F086
:101510003BFB8221204601F037FB024B5B6898477A
:10152000002010BDA000002038B540220446022350
:10153000812101F0F5FA204602234022012101F029
:10154000EFFA204603230822822101F0E9FA084B32
:10155000084A0221002519715D71136898472046D9
:101560004023054A012101F027FB284638BD00BF72
:10157000E4000020A00000206C13002038B51049C2
:101580000B7A012B01D0002038BD4B69ABB1402B49
:10159000CA680BD89D180024CD604C61094911FA26
:1015A00082F2812101F030FB002038BD403B02F186
:1015B00040044B61CC604023F0E70B72002038BD43
:1015C000640B0020B413002000207047A9B170B450
:1015D00001440B4A0B4E4C1E01380025136810F8CD
:1015E000011FF1540133B3F5006F28BF2B46A04211
:1015F0001360F3D1002070BC70470020704700BF1B
:10160000740B0020B413002059B138B54518013DC2
:10161000441E14F8010FFFF75DFEAC42F9D1002023
:1016200038BD0020704700BF202813D021280FD1DB
:10163000104B1A680A701A68120A4A705A888A701F
:10164000DA78CA701A790A715A794A719B798B7162
:101650000020704710B4074B0A680C7948791A606B
:101660008979587101221C719971DA71002010BCBE
:10167000704700BF980000200020704710B5D0F8D8
:10168000E83504461B699847032384F8123100208B
:1016900010BD00BF08B5042290F81211D0F8E8354B
:1016A00080F8131180F81221DB689847002008BDEC
:1016B00008B5D0F8E435DB6903B19847002008BDD0
:1016C00008B5D0F8E4351B6A9847002008BD00BF74
:1016D00008B5D0F8E4355B6A9847002008BD00BF24
:1016E000002310B519460446402201F019FA802162
:1016F00020460023402201F013FA0122D4F8E835F5
:1017000084F81221A0785B689847002010BD00BFC4
:1017100010B582B06946044600F088FB9DF80010C1
:1017200001F01F03012B18D010D3022B07D001F0BA
:101730008001204601F08CFA002002B010BD6946FD
:10174000204600F00FFB002002B010BD6946204685
:1017500000F08EF9002002B010BD6946204600F06E
:10176000E5FA002002B010BD38B5044649B990F83A
:101770001131022B1AD094F81631012B0DD0002014
:1017800038BDD0F8E4355B69002BF8D090F8122111
:10179000032AF4D19847002038BD214A23691268F2
:1017A0005A60002384F81631002038BDD0F8382163
:1017B000D0F824319A4211D9C078D4F828110128E0
:1017C000A2EB030208BFC918C4F8382108BFC4F847
:1017D000281192B2204600F0F5F8CCE7D0F83C2171
:1017E000B2FBF3F503FB15255DB9934209D8D0F898
:1017F00040319A4205D22A4600F0E4F8C4F840513C
:10180000B9E7D4F8E435DB682BB194F81221032A48
:1018100001D120469847204600F004F9ABE700BF0D
:10182000B41B002010B5044629B990F81131032BE0
:101830000DD0002010BDD0F8E4359B69002BF8D006
:1018400090F81221032AF4D19847002010BDD0F857
:101850009033D0F87C23934213D9C078D4F8801306
:101860000128A3EB020304BF8918C4F880139A422D
:1018700028BF1A46C4F8903392B2204600F0BAF856
:10188000D7E7D0F8E4351B6923B190F81221032A79
:1018900000D19847204600F0B5F8CAE72DE9F0419D
:1018A0000446164698460D46069F00F047FB204624
:1018B0002946C4F8E485C4F8E875C4F8EC6501F07D
:1018C000E3F8D4F8E8351B6898472046BDE8F041B6
:1018D00000F086BB00207047D0F8E43510B5044610
:1018E0001B689847D4F8E8359B689847002010BDDE
:1018F00008B5D0F8E4355B689847002008BD00BF04
:1019000012230B8000487047E400002004230B8062
:1019100000487047F800002010B5044C04480A46FF
:10192000214600F0B3FA204610BD00BFB81B0020CE
:10193000DCE6000810B5044C04480A46214600F0D5
:10194000A5FA204610BD00BFB81B002000E7000824
:1019500010B5044C04480A46214600F097FA204688
:1019600010BD00BFB81B002014E7000810B5044CE0
:1019700004480A46214600F089FA204610BD00BFFF
:10198000B81B002024E7000810B5044C04480A46A0
:10199000214600F07BFA204610BD00BFB81B002096
:1019A00030E7000838B5134602250A46C0F83C3136
:1019B000C0F8383180F81151002101F025F90020DC
:1019C00038BD00BF08B513460A46002101F01CF9D6
:1019D000002008BD38B5134603250A46C0F89433E5
:1019E000C0F8903380F81151002101F0E5F8002093
:1019F00038BD00BF08B513460A46002101F0DCF8E7
:101A0000002008BD10B5002304220446194680F8C2
:101A100011211A4601F0F8F8204600F057FF002087
:101A200010BD00BF10B5002305220446194680F8FA
:101A300011211A4601F0C0F8204600F047FF0020AF
:101A400010BD00BF01EB810100EBC101B1F88C03B7
:101A5000704700BF10B58021044601F0F9F8204618
:101A6000002101F0F5F82046BDE8104000F02EBF3F
:101A700070B54B7882B00D460446092B11D8DFE8CB
:101A800003F03448105B1068051084164B881E0A5A
:101A9000022E00F02681032E00F0EA80012E00F0D5
:101AA00094802046FFF7D6FF002002B070BD8978F1
:101AB0009A4D01292970F4D890F81231022B72D076
:101AC000032BEED1002900F01D8190F8101101299F
:101AD0002ED0FFF70DFF297884F810112046FFF76C
:101AE000FBFE2046FFF78EFFDEE790F81231012261
:101AF000023B93424FF00301D3D8884BD0F8180132
:101B00009A6000B19960204602228549FFF74AFF9A
:101B1000CAE790F81231023B012BC2D84B88012B47
:101B2000C2D1D0F8E43500229B68C0F8182198474C
:101B30002046FFF767FFB7E74B88012B69D1D0F844
:101B4000E425C0F81831936898472046FFF75AFFFC
:101B5000AAE78B88002BA4D1CB88002BA1D190F8C9
:101B60001231032B9DD08D7805F07F0580F814513C
:101B7000294601F0AFF82046FFF744FF002D00F0A2
:101B8000BB80022384F812318EE7CA88012A88D1EB
:101B900090F81231022B14D0032B82D100F58871FA
:101BA000FFF700FF80E70029C2D00121032380F85E
:101BB000101180F81231FFF78FFE2046FFF722FF49
:101BC00072E75849FFF7EEFE6EE7D0F8EC35807803
:101BD0001B680DF106019847EB88402B00F09080C0
:101BE00094F81221012A00F08B80BDF80620002A0B
:101BF0003FF45AAFEB88002B3FF456AF934228BF17
:101C0000134601461A462046ADF80630FFF7CAFED5
:101C10004AE7022B7FF448AF8B8813F0FF0F7FF465
:101C200043AF1B0A0269013B5268042B07D8DFE867
:101C300003F01B17130F0300052363F306123A4B3F
:101C4000012184F8161120461A60FFF7DBFE2BE70E
:101C5000042363F30612F2E7032363F30612EEE7AD
:101C6000022363F30612EAE7012363F30612E6E7B1
:101C7000DBB2052B3FF615AFDFE803F02B231B1378
:101C80000B03D0F8EC3580789B690DF1060198477D
:101C9000ABE7D0F8EC3580785B690DF10601984729
:101CA000A3E7D0F8EC3580781B690DF10601984761
:101CB0009BE7D0F8EC358078DB680DF1060198479A
:101CC00093E7D0F8EC3580789B680DF106019847D2
:101CD0008BE7D0F8EC3580785B680DF1060198470A
:101CE00083E7D0F8E43580789B6A0DF106019847C8
:101CF0004670C4F8F00578E7012384F81231D3E682
:101D0000082278E7022380F8101180F81231FFF7DB
:101D1000EFFD2046FFF776FEC6E600BF800B0020F1
:101D2000880B0020840B0020B41B002038B590F8ED
:101D30001231032B0CD10B79012B0D4608D8D0F8AA
:101D4000E4359B6804469847EB882BB1002038BDEA
:101D5000FFF780FE002038BD2046FFF753FE00202D
:101D600038BD00BF38B54B788A88012B0C46054634
:101D7000D1B222D018D3032B14D190F81231022BF8
:101D800016D0032B3BD163881BB94A0601D000F063
:101D90005FFFD5F8E43521469B68284698472846DA
:101DA000FFF730FE002038BD90F81231022B12D11F
:101DB0004A06F7D000F04CFFF4E790F81231022BFE
:101DC000F6D0032B1BD16388002BEBD14B06E6D05A
:101DD00000F058FFDDE7032B11D1130614D401EBFB
:101DE000810100EBC10191F87633BBB90D4B0022A4
:101DF000DA60284602220C49FFF7D4FDD2E72846D4
:101E0000FFF728FE002038BD01F07F0101EB8101C2
:101E100000EBC10191F81E31002BE7D0014B0122EC
:101E2000DA60E6E7800B00208C0B002090F8CC35C0
:101E30000B7090F8CD354B7090F8CF2590F8CE35DB
:101E400003EB02234B8090F8D12590F8D03503EBBB
:101E500002238B8090F8D32590F8D23503EB022330
:101E60009BB20122CB80C0F8403180F8112170472D
:101E700010B58021044600F0EBFE2046002100F062
:101E8000E7FE2046BDE8104000F020BD08B303780F
:101E900030B4FBB10446002314F8015F0133DBB218
:101EA000002DF9D15B000233DCB2032513800C70E6
:101EB0004D7004785CB1022300255A1CD2B2CC5478
:101EC0008D5410F8014F0233DBB2002CF5D130BC39
:101ED0007047704702242346E7E700BF014B052205
:101EE0001A70704724010020014B05221A707047B8
:101EF00024010020014B06221A70704724010020A3
:101F0000014B05221A70704724010020014B052265
:101F10001A70704724010020014B05221A70704787
:101F200024010020014B05221A7070472401002073
:101F3000014B1878704700BF24010020F0B5012143
:101F4000264C83B00846FEF7ABFE0026022303278B
:101F5000204669464FF4C0528DF8043000928DF847
:101F600005708DF806608DF80760FFF717F82046BA
:101F70000A220B21FFF7A0F80A2220460C21FFF7C6
:101F80009BF80125694620464FF4007300938DF8B5
:101F900005708DF804608DF807608DF80650FEF727
:101FA000FDFF4FF480636946204600938DF805706D
:101FB0008DF806508DF80750FEF7F0FF0A22114603
:101FC0002046FFF779F829464FF48040FEF798FE47
:101FD00029468020FEF770FE03B0F0BD00000240ED
:101FE00000B54FF4C06083B001F0FEF840F2431139
:101FF0000322012301A8ADF804108DF806208DF806
:10200000073001F0FBF803B05DF804FBC0EB0010F3
:10201000064AC000A2FB0032801A02EB500292086E
:10202000002301339A42FCD2704700BF2549922415
:10203000074B084A03FB00F0A2FB0032801A02EBB8
:1020400050029208002301339A42FCD2704700BF2D
:10205000C0D40100254992244FF4802001F092B9A8
:10206000014800F073BE00BF340D002030B50546B6
:1020700083B0002303200193FFF7C8FF2B68134CA4
:102080001A69019206E0FFF7C1FF2B68013C1A694B
:10209000019218D0019A002A4FF00300F3DA019957
:1020A0000A4A41F0010101910199196119690191EF
:1020B00003E019690191013A02D00199C907F8D4E6
:1020C0000320FFF7A3FF002003B030BD400D030045
:1020D00030B4C4786CB900EB8200DA1C9210D0F8EE
:1020E000D05006D02346013351F8040B28609A42A1
:1020F000F9D1002030BC70470332921070B4D0F890
:10210000D0600BD00C4600230133356844F8045BE3
:102110009A42F9D101EB820070BC7047084670BC4E
:10212000704700BF0122402391422DE9F0414280D7
:10213000838057D0002945D140F20C64384A04808E
:102140004FF4A063374FDFF8EC80DFF8ECE0364C5B
:10215000C172C380114606230C26C0E9032400F196
:10216000140202EB830C00F1500401F5106342F8F5
:10217000043F03F50075624544F8045F03F1200352
:10218000F5D1C0F814E0C0F8CC80B6B1B60000F1CB
:102190008C039C1901F5A06243F8042F9C4202F1C4
:1021A0002002F9D100F1CC0301F58052991943F8CE
:1021B000042F994202F58052F9D1C0F80C71002029
:1021C000BDE8F0814378067800224FF40061C0E951
:1021D0000321E3B111464FF460674FF488684FF470
:1021E000806EBCE74FF4A07402234FF481654FF07A
:1021F000A042C172C48003720580114604230826E0
:102200000A4FDFF83880DFF838E0094CA5E71946B7
:102210004FF460674FF488684FF4806EB1E700BFF9
:1022200000000440000E044000080440000E00506E
:1022300000080050400404400004044040040050E2
:102240000004005038B5037A012B044650F80C2FD7
:1022500019D1936B617A002565F3104309B143F4FA
:1022600080139363D3686FF386136FF396536FF302
:1022700051436FF3D343D360FFF7F8FEE378012BAC
:1022800020D0002038BDD36843F04003D360FFF76F
:10229000EDFE637AE268002B0CBF4FF434134FF469
:1022A000741393631420FFF7C3FEE378012BE8D186
:1022B000E3689D68052262F3440545F020059D60B2
:1022C000002038BD0522E36862F3440545F020058F
:1022D0009D60EEE7C268936843F0010393600020BD
:1022E000704700BFC268936823F001039360002029
:1022F000704700BF00B583B000230193019A0E4BD5
:1023000042F020020192019A61F38A120192C1689F
:10231000019A0A610A69019203E00A690192013B8C
:1023200002D0019A9206F8D40320FFF76FFE002036
:1023300003B05DF804FB00BF400D030000B583B09F
:1023400000230193019A0C4B42F010020192C168E4
:10235000019A0A610A69019203E00A690192013B4C
:1023600002D0019AD206F8D40320FFF74FFE0020D6
:1023700003B05DF804FB00BF400D0300C26808B560
:10238000D36801296FF35D736FF39E7308D009B9A9
:1023900043F08043D3603220FFF74AFE002008BD9F
:1023A00043F00053F6E700BFC368586900F001002E
:1023B000704700BFC3685869C04300F00100704710
:1023C000C368586900F00100704700BFC3685869CE
:1023D0009B691840704700BFC3685868704700BFCA
:1023E0000269136861F301031360704730B4C26877
:1023F0000D4C00236FF080414FF0FF359361516128
:10240000556051619461C0789169984208BF10236A
:1024100043F4701343F4605343F008030B4300206C
:10242000936130BC704700BF00080080F8B5D0F859
:102430000C31026900211960136861F3CC23136029
:10244000C37A012B044612D11068E3682A492B4D48
:1024500040F00300106080225A629D62C3F80411AC
:102460002749C3F808114FF4A071C3F80C111021CB
:102470002046FFF73FFF2046FFF760FF2669002157
:102480004FF0FF3331617161B361F16165782DB354
:1024900004F1140202EB850CFF2752F8043F186880
:1024A0000028ACBF00204FF090409445186019619F
:1024B0009F60F2D10022944604F15001FF2751F8A9
:1024C000043F186801320028ACBF00204FF0904054
:1024D000AA421860C3F810C09F60F0D3336943F478
:1024E00080733361E378012B04BF064B33632046CE
:1024F000FFF77CFF0020F8BDA000800080002000D6
:10250000200120000301810003699B68C3F341039C
:10251000022B06D003D8012B01D0032070470220E4
:1025200070470120704700BF036981699A68086895
:10253000C2F34102022A10B40DBF0322002464F347
:102540000A0062F30A0008605A6810BC42F4807204
:1025500000205A60704700BF70B40C784D7801239A
:10256000A34000EB8404012D0CBFA469646D9BB2F1
:102570004FF000020CBF63F30F0263F31F422368A6
:102580001D040DD48E68CD78C98866F30A0365F3FF
:10259000934361F3995343F0805343F40043236022
:1025A0000369D9690A430020DA6170BC704700BF33
:1025B00030B40A784D7801239340002100EB820269
:1025C0009BB20C46012D0BBF63F30F0463F31F4452
:1025D0009369536D02696FF3CF311960D36923EAB0
:1025E00004030020D36130BC704700BF2DE9F043E5
:1025F00091F801E00A784B69CE78BEF1010F29D03D
:1026000000EB8202D1F808C0526DCCF312071468B7
:102610001569CBB16344013BB3FBFCF3C3F309037E
:1026200063F3DC4507FB03F363F312051561C3781D
:10263000012B04BF0B695361012E34D044F00444D4
:1026400014600020BDE8F08367F31205012363F3F3
:10265000DC45EBE700EB8208D8F818C0DCF8004056
:10266000DCF8105023B3D1F8089063F3120509EB9E
:102670000307012E07F1FF37B7FBF9F767F3DC45D6
:1026800041D0CCF81050C378012B4ED00369596B60
:102690000EFA02F20A435A6344F00444CCF80040B4
:1026A0000020BDE8F0834B7953B344F00054C5E7F4
:1026B00063F312056EF3DC45CCF81050C278012AA2
:1026C0002DD0012EE8D100698068C00554BF44F0C8
:1026D000005444F0805444F00444CCF80040002AF4
:1026E000AFD198B203308010D8F8D040A9D0C968D3
:1026F0001346013351F8042B22609842F9D1A0E728
:1027000044F080549AE766F35E75CCF81050C278B6
:10271000012AD8D10A69CCF814200122D3E70A692A
:10272000CCF81420012EB7D1F7E70B69CCF81430A0
:10273000B2E700BFF0B44A784C69012A82B034D0C5
:102740000B788D6800EB830305F07F065A6D1368E4
:1027500017690097DCB19DF800709DF802404D614B
:10276000012566F3060765F3C4048DF800708DF843
:102770000240009C1461C078012804BF09695161BE
:1027800043F004431360002002B0F0BC70479DF892
:1027900000509DF8024066F30605012666F3C40466
:1027A0008DF800508DF80240E3E785692B682E69AB
:1027B00000962CB38A68A24240D29DF800404A613C
:1027C00062F306048DF800409DF80220012464F3B2
:1027D000C4028DF80220009A2A61C278012A20D012
:1027E00043F004432B60002ACDD14B69002BCAD0A3
:1027F00002690878516B012383400B435363C2E79E
:102800009DF800709DF8026064F3060762F3C40649
:102810008DF800708DF80260009A2A61C278012A52
:10282000DED10A78096900EB820043F00443826933
:10283000002051612B6002B0F0BC70479DF8002071
:1028400064F306028DF80020BEE700BF4A780B78DB
:10285000012A00EB830006D0426D136843F4001395
:1028600013600020704782691368002BF6DA43F08A
:10287000804343F400131360002070470B784A78BC
:1028800000EB8300012A0CBF8069406DCA780368A1
:10289000023A6FF35553012A98BF43F08053036007
:1028A0000020704703699869DB691840000C704785
:1028B00000EB810103694A6D90685B6918407047BD
:1028C00003699869DB69184080B27047436D084A14
:1028D0001A6182B00092C278012A06D100F2CC506F
:1028E00058614FF0802219681A6002B0704700BF2B
:1028F000180008C0D0F81831EBB103699A68D20704
:1029000019D510B5827A42B1D0F80C21D0F80C114B
:102910006FF341026FF300020A605A68044642F006
:1029200001025A600520FFF783FB2269536823F0F8
:102930000103536010BD7047837A63B103699B68DC
:10294000DB0708D5D0F80C31D0F80C216FF3410328
:102950006FF300031360704770B545780123064696
:1029600080F8123175B100F1140303EB850500F115
:102970005001FF2253F8044F51F8040FA260AB42FC
:102980008260F7D1336900224FF0FF311A6130467F
:102990005A61DA619961FFF7D1FC30461021BDE838
:1029A0007040FFF7A7BC00BF4A780B78012A00EB04
:1029B000830010D0436D1B68C3F307439A0607D406
:1029C00013F0020F0CBF4FF440504FF4005070470B
:1029D0004FF48050704783691B68C3F3074399061F
:1029E00005D413F0020F0CBF3020202070471020B8
:1029F000704700BFF0B44E780C78012E0D4617D00A
:102A000000EB8401B2F5805F4E6D33681F460AD03B
:102A1000B2F5005F1DD0B2F5405F1DD02AB962F358
:102A2000CF373B4601E043F400133360F0BC7047FE
:102A300000EB8404102AA66933681F4621D0202A9F
:102A400007D0302AEAD1990216D500206871A16911
:102A500007E043F00063E8E79A020DD500206871B3
:102A6000496DEB780A68023B60F35552012B98BF21
:102A700042F080520A60D9E743F0044343F4004334
:102A8000D3E7F0BCFFF7E2BEF8B50546FFF74AFB17
:102A90006C780126002185F8126185F8141164B361
:102AA00008462B462A46402782F81C11A2F822111C
:102AB0000131A14282F81D6182F81F01C2F8247120
:102AC000C2F82801C2F8300102F12802ECD100223C
:102AD0001146402083F87423A3F87A230132A242DE
:102AE00083F8751383F87713C3F87C03C3F8801356
:102AF000C3F8881303F12803ECD12846FFF7F2FB53
:102B00002846FFF79FFB00212846FFF737FC2846A1
:102B1000FFF78CFC2846BDE8F840FFF7DBBB00BFA1
:102B200070B50C0601F07F0519D401EB810400EBB0
:102B3000C404282606FB0101002684F87453C4F857
:102B40007C2384F8773384F8756301F55D71022B7B
:102B500004BF00230B71FFF7FFFC002070BD05EBE5
:102B6000850400EBC404282101FB0501C4F82421DD
:102B7000012284F81C5184F81F31A4F8225184F8F2
:102B80001D2101F58E71E2E74BB2002B10B501F06B
:102B90007F020BDB282404FB010101F55D71DB0FD3
:102BA0004B700A70FFF704FD002010BD282101FBC7
:102BB000020101F58E71F2E738B501F07F0505EBF2
:102BC000850400EBC404002184F87453C4F88C130A
:102BD00084F87513C4F88023C4F88833C378282197
:102BE000012B01FB050108BFEDB201F55D7108BFC6
:102BF000C4F884231DB1FFF7F9FC002038BDFFF7AE
:102C000099FD002038BD00BF70B501F07F0606EBCE
:102C1000860400EBC4042825012105FB0605C4F841
:102C20002821C4F82C21002284F81D1184F81C618D
:102C3000C4F83031C4F8342105F58E711EB1FFF7A8
:102C4000D5FC002070BDFFF775FD002070BD00BFF2
:102C50004BB2002B10B501F07F020DDB282404FBE2
:102C6000010101F55D71DB0F01244B700A708C705E
:102C7000FFF7ECFD002010BD282101FB020101F54A
:102C80008E71F0E74BB2002B10B501F07F020DDB27
:102C9000282404FB010101F55D71DB0F00244B705A
:102CA0000A708C70FFF7EAFD204610BD282101FB59
:102CB000020101F58E71F0E708B50B0603D4FFF7AA
:102CC0003DFB002008BD01F07F01FFF713FB002052
:102CD00008BD00BF02690023106861F30A130343B3
:102CE00013607047026953686FF341035360032018
:102CF000FFF79EB90269536843F002035360032053
:102D0000FFF796B90B0606D4282303FB010101F552
:102D10005D71FFF749BE01F07F01282303FB01012C
:102D200001F58E71FFF740BE0B0606D4282303FB86
:102D3000010101F55D71FFF75DBE01F07F01282300
:102D400003FB010101F58E71FFF754BE2DE9F04F31
:102D500085B00446FFF72EFB18B9002005B0BDE88A
:102D6000F08F2046FFF732FB07460028F5D0C0F36E
:102D7000074B1BF0080040F044811BF0040F40F0AB
:102D8000E180FDB2A90702D5E36802225A61002F53
:102D9000C0F2CC81C7F307273A0700F1A4802E07C1
:102DA00008D59E4B1B682046DB689847E3680822DD
:102DB0005A610120E9066FD4FA0637D4BB061CD449
:102DC0001BF0100F09D0954B1B682046DB69984714
:102DD000E3684FF480125A6101201BF0200FBDD030
:102DE0008E4B1B6820461B6A9847E3684FF400121D
:102DF00001205A6105B0BDE8F08F2046FFF794FB33
:102E0000E3682046DD68FFF77FFB032800F085813B
:102E1000012140220523A170A28063F38D25E36880
:102E20004FF40052DD6001205A61C9E722695368FE
:102E300023F00103536000212046FFF75BFA667818
:102E400076B104F1140303EB860604F15001FF226E
:102E500053F8045F51F8040FAA609E428260F7D1D4
:102E600023694FF001110B224FF0FF309861D961B7
:102E70005A611A611A686FF30A121A602046FFF746
:102E800025FD664BE2681B684FF480511B69516158
:102E900020469847012091E7E3689A6922F01002E2
:102EA0009A611D6AC5F34342022A05F00F0600F03D
:102EB000FF80062A11D106EB860604EBC60608221F
:102EC00004F2CC512046FFF717F9D6F88C23E368BB
:102ED000C5F30A151544C6F88C539A6942F01002DE
:102EE0009A61012068E74D4B94F812211B6800217C
:102EF0005B698DF80F1020468DF80F209847D4E9B4
:102F0000033291684FF400625A61A37AC3B1CB07D0
:102F100016D594F81531012B12D19DF80F30032BE3
:102F20000ED1D4F80C313E491A6842F001021A6001
:102F30001A6842F003021A600B6943F006030B6142
:102F400001202CE72046FFF7BBFC8046002856D026
:102F5000264604F118094FF0000A019718F0010FF6
:102F600043D022695FFA8AF71169536B04EB87003B
:102F7000FB408069DB01DBB280680B430340DBB2BE
:102F8000DD0713D52548536BD9F80050006801219F
:102F900001FA0AFC23EA0C0353634368A960204644
:102FA00039469847E578012D76D00123180704D5D6
:102FB000D9F8003008229A601346D90604D5D9F80A
:102FC000003010229A6013465A0604D5D9F8003012
:102FD00040229A6013469D0704D5D9F8003002229A
:102FE0009A601346180600F1BC805FEA58080AF19F
:102FF000010A06F1280609F10409AFD1019F012059
:10300000BFE62046FFF74EFC0546002842D0DFF819
:103010000C8000264FF0020908E000BFB400002039
:1030200000ED00E06D0806F1010633D0E807F9D5A0
:103030005FFA86FA51462046FFF73AFCC0B2C10754
:1030400013D504EB86030122596D8A60E278012AC8
:1030500056D0D8F8003051461B682046984794F85F
:1030600003A0BAF1010F40D00120820705D504EB7F
:10307000860302205B6DC3F808900307D2D5D8F809
:10308000003020469B68984704EB860308225B6D5E
:103090009A60C7E7012070E6BAF1000F85D194F875
:1030A0001131042B81D12046FFF710FC2B467DE720
:1030B00047F6F0722A423FF410AF06EB860604EBA7
:1030C000C606C5F30A15D6F880132A462046FFF730
:1030D00013F8D6F88013D6F88C23E36829442A44E1
:1030E000C6F88013C6F88C23F7E6002EBCD194F8FE
:1030F0001131052BB8D12046FFF7E8FB5046B4E765
:1031000006EBC60203EB82030969D3F87C23C1F303
:103110001201521AC3F88C239BE700214FF400726E
:103120000923A170A28063F38D2578E6A37A43B1C9
:10313000D4F80C31D4F80C216FF341036FF3000382
:103140001360226927495368096823F0010353601B
:1031500020468B699847E3684FF000425A6101208E
:1031600018E6D6F830C1D6F834E1D6F82421D9F8DB
:103170000030ACEB0E0595429969284628BF1046F1
:10318000033089B2B1EB900F28D9F44526D9BCF1B0
:10319000000F23D0D6F8281106E0D6F8305195421A
:1031A0001CD9AD1AD6F82421954228BF1546ABB2DA
:1031B0003A462046FEF78CFFD9F80030D6F82811A1
:1031C0009869D6F8342129442A4480B20335B0EBFB
:1031D000950FC6F82811C6F83421DED880229A60EF
:1031E00003E700BFB400002040F0BF60024B40F492
:1031F0000030D860704700BF00ED00E0F0B4017807
:10320000C378012401F01F0294404D092BB92035E9
:103210000F4B43F82540F0BC70470E4B4678DB68F7
:1032200082780B4FD843C0F30220C0F10403DBB215
:103230009E400F230341F6B21340334339441B0130
:10324000DBB281F8003347F82540F0BC704700BF7F
:1032500000E100E000ED00E021F0604121F07F019D
:10326000014B01439960704700ED00E0044A136987
:1032700019B923EA000010617047184310617047C4
:1032800000ED00E0044A136804280CBF43F0040377
:1032900023F004031360704710E000E0044B05497D
:1032A00000221A605A609A60DA605961704700BF64
:1032B000003C0140FFFF7F000379827970B405680C
:1032C00003F1804303F59E33EC43F2B1154A417993
:1032D0001668264016605668344054601C682543C2
:1032E0001D6000689468C3431C409460D468102932
:1032F00003EA0403D3600DD001F1804303F59E334C
:1033000070BC1A681043186070471A6814401C603B
:1033100070BC7047936803439360D3681843D060D0
:1033200070BC7047003C014000230C2242710360D6
:1033300003718371704700BF024A1369184310611B
:10334000704700BF003C0140034B5B69034214BF60
:1033500001200020704700BF003C0140014B586134
:10336000704700BF003C0140054B1A685B69034091
:1033700004D0024214BF0120002070471846704755
:10338000003C0140014B5861704700BF003C0140C8
:1033900081F0004102E000BF83F0004330B54FEA06
:1033A00041044FEA430594EA050F08BF90EA020F73
:1033B0001FBF54EA000C55EA020C7FEA645C7FEA06
:1033C000655C00F0E2804FEA5454D4EB5555B8BF29
:1033D0006D420CDD2C4480EA020281EA030382EA9A
:1033E000000083EA010180EA020281EA0303362D2C
:1033F00088BF30BD11F0004F4FEA01314FF4801CFF
:103400004CEA113102D0404261EB410113F0004F10
:103410004FEA03334CEA133302D0524263EB4303C7
:1034200094EA050F00F0A780A4F10104D5F1200E65
:103430000DDB02FA0EFC22FA05F2801841F10001C0
:1034400003FA0EF2801843FA05F359410EE0A5F194
:1034500020050EF1200E012A03FA0EFC28BF4CF0C5
:10346000020C43FA05F3C01851EBE37101F000457B
:1034700007D54FF0000EDCF1000C7EEB00006EEB88
:103480000101B1F5801F1BD3B1F5001F0CD3490812
:103490005FEA30004FEA3C0C04F101044FEA445269
:1034A00012F5800F80F09A80BCF1004F08BF5FEAF0
:1034B000500C50F1000041EB045141EA050130BDD0
:1034C0005FEA4C0C404141EB010111F4801FA4F173
:1034D0000104E9D191F0000F04BF01460020B1FAC8
:1034E00081F308BF2033A3F10B03B3F120020CDA00
:1034F0000C3208DD02F1140CC2F10C0201FA0CF0DE
:1035000021FA02F10CE002F11402D8BFC2F1200C42
:1035100001FA02F120FA0CFCDCBF41EA0C019040F8
:10352000E41AA2BF01EB0451294330BD6FEA040441
:103530001F3C1CDA0C340EDC04F11404C4F120022C
:1035400020FA04F001FA02F340EA030021FA04F33E
:1035500045EA030130BDC4F10C04C4F1200220FA95
:1035600002F001FA04F340EA0300294630BD21FAD3
:1035700004F0294630BD94F0000F83F4801306BF99
:1035800081F480110134013D4EE77FEA645C18BF8D
:103590007FEA655C29D094EA050F08BF90EA020F24
:1035A00005D054EA000C04BF1946104630BD91EA1C
:1035B000030F1EBF0021002030BD5FEA545C05D11F
:1035C0004000494128BF41F0004130BD14F580045E
:1035D0003CBF01F5801130BD01F0004545F0FE41D2
:1035E00041F470014FF0000030BD7FEA645C1ABF07
:1035F000194610467FEA655C1CBF0B46024650EA3E
:10360000013406BF52EA033591EA030F41F4002169
:1036100030BD00BF90F0000F04BF0021704730B5EF
:103620004FF4806404F132044FF000054FF00001C4
:1036300050E700BF90F0000F04BF0021704730B585
:103640004FF4806404F1320410F0004548BF40425A
:103650004FF000013EE700BF42004FEAE2014FEAAF
:1036600031014FEA02701FBF12F07F4393F07F4F8A
:1036700081F06051704732F07F4208BF704793F08D
:103680007F4F04BF41F40021704730B54FF46074A0
:1036900001F0004521F000411CE700BF50EA0102A3
:1036A00008BF704730B54FF000050AE050EA01024C
:1036B00008BF704730B511F0004502D5404261EBBC
:1036C00041014FF4806404F132045FEA915C3FF4FD
:1036D000D8AE4FF003025FEADC0C18BF03325FEA9A
:1036E000DC0C18BF033202EBDC02C2F1200300FA4B
:1036F00003FC20FA02F001FA03FE40EA0E0021FA70
:1037000002F11444BDE600BF70B54FF0FF0C4CF45D
:10371000E06C1CEA11541DBF1CEA135594EA0C0F0F
:1037200095EA0C0F00F0DEF82C4481EA030621EA4A
:103730004C5123EA4C5350EA013518BF52EA033585
:1037400041F4801143F4801338D0A0FB02CE4FF037
:103750000005E1FB02E506F00042E0FB03E54FF067
:103760000006E1FB03569CF0000F18BF4EF0010E5F
:10377000A4F1FF04B6F5007F64F5407404D25FEA5B
:103780004E0E6D4146EB060642EAC62141EA55510E
:103790004FEAC52040EA5E504FEACE2EB4F1FD0C50
:1037A00088BFBCF5E06F1ED8BEF1004F08BF5FEACE
:1037B000500E50F1000041EB045170BD06F0004680
:1037C00046EA010140EA020081EA0301B4EB5C042D
:1037D000C2BFD4EB0C0541EA045170BD41F4801125
:1037E0004FF0000E013C00F3AB8014F1360FDEBF4A
:1037F000002001F0004170BDC4F10004203C35DA26
:103800000C341BDC04F11404C4F1200500FA05F3A8
:1038100020FA04F001FA05F240EA020001F0004249
:1038200021F0004110EBD37021FA04F642EB0601BF
:103830005EEA430E08BF20EAD37070BDC4F10C04E9
:10384000C4F1200500FA04F320FA05F001FA04F2AD
:1038500040EA020001F0004110EBD37041F1000199
:103860005EEA430E08BF20EAD37070BDC4F12005A4
:1038700000FA05F24EEA020E20FA04F301FA05F20C
:1038800043EA020321FA04F001F0004121FA04F2B4
:1038900020EA020000EBD3705EEA430E08BF20EA84
:1038A000D37070BD94F0000F0FD101F000464000BE
:1038B00041EB010111F4801F08BF013CF7D041EA40
:1038C000060195F0000F18BF704703F00046520044
:1038D00043EB030313F4801F08BF013DF7D043EA15
:1038E0000603704794EA0C0F0CEA135518BF95EACB
:1038F0000C0F0CD050EA410618BF52EA4306D1D152
:1039000081EA030101F000414FF0000070BD50EA70
:10391000410606BF1046194652EA430619D094EAFA
:103920000C0F02D150EA013613D195EA0C0F05D1E4
:1039300052EA03361CBF104619460AD181EA030138
:1039400001F0004141F0FE4141F470014FF00000F0
:1039500070BD41F0FE4141F4780170BD70B54FF08B
:10396000FF0C4CF4E06C1CEA11541DBF1CEA13550B
:1039700094EA0C0F95EA0C0F00F0A7F8A4EB0504ED
:1039800081EA030E52EA03354FEA013100F08880E4
:103990004FEA03334FF0805545EA131343EA1263AD
:1039A0004FEA022245EA111545EA10654FEA002662
:1039B0000EF000419D4208BF964244F1FD0404F51B
:1039C000407402D25B084FEA3202B61A65EB030577
:1039D0005B084FEA32024FF480104FF4002CB6EB34
:1039E000020E75EB030E22BFB61A754640EA0C00B4
:1039F0005B084FEA3202B6EB020E75EB030E22BFF4
:103A0000B61A754640EA5C005B084FEA3202B6EB34
:103A1000020E75EB030E22BFB61A754640EA9C00F3
:103A20005B084FEA3202B6EB020E75EB030E22BFC3
:103A3000B61A754640EADC0055EA060E18D04FEA81
:103A4000051545EA16754FEA06164FEAC30343EA21
:103A500052734FEAC2025FEA1C1CC0D111F4801FEE
:103A60000BD141EA00014FF000004FF0004CB6E7E7
:103A700011F4801F04BF01430020B4F1FD0C88BF86
:103A8000BCF5E06F3FF6AFAEB5EB030C04BFB6EB91
:103A9000020C5FEA500C50F1000041EB045170BD84
:103AA0000EF0004E4EEA113114EB5C04C2BFD4EBB1
:103AB0000C0541EA045170BD41F480114FF0000E35
:103AC000013C90E645EA060E8DE60CEA135594EAB1
:103AD0000C0F08BF95EA0C0F3FF43BAF94EA0C0FB4
:103AE0000AD150EA01347FF434AF95EA0C0F7FF429
:103AF00025AF104619462CE795EA0C0F06D152EA7D
:103B000003353FF4FDAE1046194622E750EA410660
:103B100018BF52EA43067FF4C5AE50EA41047FF471
:103B20000DAF52EA43057FF4EBAE12E74FF0FF3CD6
:103B300006E000BF4FF0010C02E000BF4FF0010CA7
:103B40004DF804CD4FEA410C7FEA6C5C4FEA430C20
:103B500018BF7FEA6C5C1BD001B050EA410C0CBF6F
:103B600052EA430C91EA030F02BF90EA020F0020D1
:103B7000704710F1000F91EA030F58BF994208BF38
:103B800090422CBFD8176FEAE37040F001007047F5
:103B90004FEA410C7FEA6C5C02D150EA013C07D14C
:103BA0004FEA430C7FEA6C5CD6D152EA033CD3D097
:103BB0005DF8040B704700BF8446104662468C4691
:103BC0001946634600E000BF01B5FFF7B7FF0028C4
:103BD00048BF10F1000F01BD4DF808EDFFF7F4FFED
:103BE0000CBF012000205DF808FB00BF4DF808ED78
:103BF000FFF7EAFF34BF012000205DF808FB00BF9B
:103C00004DF808EDFFF7E0FF94BF012000205DF8BC
:103C100008FB00BF4DF808EDFFF7CEFF94BF012071
:103C200000205DF808FB00BF4DF808EDFFF7C4FF6A
:103C300034BF012000205DF808FB00BF4FEA410CB3
:103C40007FEA6C5C02D150EA013C0AD14FEA430C96
:103C50007FEA6C5C02D152EA033C02D14FF00000D3
:103C600070474FF0010070474FEA410212F5001211
:103C700015D211D56FF47873B3EB625212D94FEAB3
:103C8000C12343F0004343EA505311F0004F23FA9D
:103C900002F018BF404270474FF00000704750EAF2
:103CA000013005D111F0004008BF6FF000407047AF
:103CB0004FF00000704700BF4FEA4102B2F1E0430D
:103CC00024BFB3F5001CDCF1FE5C0DD901F0004C03
:103CD0004FEAC0024CEA5070B2F1004F40EB830053
:103CE00008BF20F00100704711F0804F21D113F17F
:103CF0003872BCBF01F00040704741F480114FEAB8
:103D00005252C2F11802C2F1200C10FA0CF320FA40
:103D100002F018BF40F001004FEAC1234FEAD3235D
:103D200003FA0CFC40EA0C0023FA02F34FEA4303C7
:103D3000CCE77FEA625307D150EA01331EBF4FF050
:103D4000FE4040F44000704701F0004040F0FE406B
:103D500040F40000704700BF80F0004002E000BF68
:103D600081F0004142001FBF5FEA410392EA030F66
:103D70007FEA226C7FEA236C6AD04FEA1262D2EBB0
:103D80001363C1BFD218414048404140B8BF5B42B5
:103D9000192B88BF704710F0004F40F4000020F04E
:103DA0007F4018BF404211F0004F41F4000121F064
:103DB0007F4118BF494292EA030F3FD0A2F10102AE
:103DC00041FA03FC10EB0C00C3F1200301FA03F1EC
:103DD00000F0004302D5494260EB4000B0F5000F0F
:103DE00013D3B0F1807F06D340084FEA310102F1CE
:103DF0000102FE2A51D2B1F1004F40EBC25008BF80
:103E000020F0010040EA03007047490040EB000049
:103E100010F4000FA2F10102EDD1B0FA80FCACF178
:103E2000080CB2EB0C0200FA0CF0AABF00EBC25077
:103E300052421843BCBFD0401843704792F0000F65
:103E400081F4000106BF80F400000132013BB5E7B8
:103E50004FEA41037FEA226C18BF7FEA236C21D02E
:103E600092EA030F04D092F0000F08BF0846704793
:103E700090EA010F1CBF0020704712F07F4F04D161
:103E8000400028BF40F00040704712F100723CBF74
:103E900000F50000704700F0004343F0FE4040F49E
:103EA000000070477FEA226216BF08467FEA23635C
:103EB0000146420206BF5FEA412390EA010F40F447
:103EC000800070474FF0000304E000BF10F0004393
:103ED00048BF40425FEA000C08BF704743F096437A
:103EE00001464FF000001CE050EA010208BF704795
:103EF0004FF000030AE000BF50EA010208BF70471C
:103F000011F0004302D5404261EB41015FEA010C30
:103F100002BF84460146002043F0B64308BFA3F128
:103F20008053A3F50003BCFA8CF2083AA3EBC2530A
:103F300010DB01FA02FC634400FA02FCC2F1200229
:103F4000BCF1004F20FA02F243EB020008BF20F060
:103F50000100704702F1200201FA02FCC2F12002C6
:103F600050EA4C0021FA02F243EB020008BF20EABB
:103F7000DC7070474FF0FF0C1CEAD0521EBF1CEAE9
:103F8000D15392EA0C0F93EA0C0F6FD01A4480EAD7
:103F9000010C400218BF5FEA41211ED04FF00063C0
:103FA00043EA501043EA5111A0FB01310CF00040EC
:103FB000B1F5000F3EBF490041EAD3715B0040EA12
:103FC000010062F17F02FD2A1DD8B3F1004F40EBE2
:103FD000C25008BF20F00100704790F0000F0CF0B5
:103FE000004C08BF49024CEA502040EA51207F3A79
:103FF000C2BFD2F1FF0340EAC250704740F4000054
:104000004FF00003013A5DDC12F1190FDCBF00F044
:1040100000407047C2F10002410021FA02F1C2F1F2
:10402000200200FA02FC5FEA310040F1000053EA8E
:104030004C0308BF20EADC70704792F0000F00F0DC
:10404000004C02BF400010F4000F013AF9D040EAE2
:104050000C0093F0000F01F0004C02BF490011F476
:10406000000F013BF9D041EA0C018FE70CEAD15374
:1040700092EA0C0F18BF93EA0C0F0AD030F0004CF4
:1040800018BF31F0004CD8D180EA010000F00040A8
:10409000704790F0000F17BF90F0004F084691F066
:1040A000000F91F0004F14D092EA0C0F01D14202A0
:1040B0000FD193EA0C0F03D14B0218BF084608D169
:1040C00080EA010000F0004040F0FE4040F40000B3
:1040D000704740F0FE4040F4400070474FF0FF0C46
:1040E0001CEAD0521EBF1CEAD15392EA0C0F93EA8D
:1040F0000C0F69D0A2EB030280EA010C49024FEADF
:10410000402037D04FF0805343EA111143EA101397
:104110000CF000408B4238BF5B0042F17D024FF44F
:10412000000C8B4224BF5B1A40EA0C00B3EB510F2A
:1041300024BFA3EB510340EA5C00B3EB910F24BF13
:10414000A3EB910340EA9C00B3EBD10F24BFA3EB98
:10415000D10340EADC001B0118BF5FEA1C1CE0D160
:10416000FD2A3FF650AF8B4240EBC25008BF20F013
:10417000010070470CF0004C4CEA50207F32C2BF67
:10418000D2F1FF0340EAC250704740F400004FF004
:104190000003013A37E792F0000F00F0004C02BF35
:1041A000400010F4000F013AF9D040EA0C0093F0FF
:1041B000000F01F0004C02BF490011F4000F013B59
:1041C000F9D041EA0C0195E70CEAD15392EA0C0FC1
:1041D00008D142027FF47DAF93EA0C0F7FF470AFF9
:1041E000084676E793EA0C0F04D14B023FF44CAF3C
:1041F00008466EE730F0004C18BF31F0004CCAD1D1
:1042000030F000427FF45CAF31F000437FF43CAF0C
:104210005FE700BF4FF0FF3C06E000BF4FF0010C2E
:1042200002E000BF4FF0010C4DF804CD4FEA400210
:104230004FEA41037FEA226C18BF7FEA236C11D05A
:1042400001B052EA530C18BF90EA010F58BFB2EB0D
:10425000030088BFC81738BF6FEAE17018BF40F08D
:10426000010070477FEA226C02D15FEA402C05D141
:104270007FEA236CE4D15FEA412CE1D05DF8040BC6
:10428000704700BF844608466146FFE70FB5FFF759
:10429000C9FF002848BF10F1000F0FBD4DF808ED11
:1042A000FFF7F4FF0CBF012000205DF808FB00BF02
:1042B0004DF808EDFFF7EAFF34BF012000205DF85C
:1042C00008FB00BF4DF808EDFFF7E0FF94BF0120A9
:1042D00000205DF808FB00BF4DF808EDFFF7D2FFA6
:1042E00094BF012000205DF808FB00BF4DF808EDE9
:1042F000FFF7C8FF34BF012000205DF808FB00BFB6
:104300004FEA40024FEA41037FEA226C02D15FEAA2
:10431000402C08D17FEA236C02D15FEA412C02D104
:104320004FF0000070474FF00100704742000ED27E
:10433000B2F1FE4F0BD34FF09E03B3EB126209D4E0
:104340004FEA002343F0004323FA02F070474FF096
:104350000000704712F1610F01D1420202D14FF00B
:10436000FF3070474FF00000704700BF53B94AB9A3
:10437000002908BF00281CBF4FF0FF314FF0FF306D
:1043800000F072B9ADF1080C6DE904CE00F006F84A
:10439000DDF804E0DDE9022304B070472DE9F047C1
:1043A000089E04468846002B4BD18A42154667D9A1
:1043B000B2FA82F24AB1C2F1200701FA02F320FAFE
:1043C00007F7954047EA030894404FEA154E230C3F
:1043D000B8FBFEF71FFA85FC0EFB178843EA08437B
:1043E00007FB0CF1994209D9EB1807F1FF3080F077
:1043F0001B81994240F21881023F2B445B1AA4B200
:10440000B3FBFEF00EFB103344EA034400FB0CFC4C
:10441000A44509D92C1900F1FF3380F00781A44588
:1044200040F2048102382C4440EA0740A4EB0C041B
:1044300000271EB1D4400023C6E900433946BDE839
:10444000F0878B4209D9002E00F0EB800027C6E9E7
:10445000000138463946BDE8F087B3FA83F7002FEC
:1044600047D18B4202D3824200F2FA80841A61EB78
:10447000030301209846002EE0D0C6E90048DDE79E
:1044800002B9FFDEB2FA82F2002A40F08F80491BA7
:104490004FEA154E1FFA85F80127B1FBFEFC230CED
:1044A0000EFB1C1143EA014308FB0CF1994207D9AA
:1044B000EB180CF1FF3002D2994200F2CD80844615
:1044C000591AA3B2B1FBFEF00EFB101443EA0444E8
:1044D00008FB00F8A04507D92C1900F1FF3302D2E0
:1044E000A04500F2B6801846A4EB080440EA0C4050
:1044F0009FE7C7F1200CBB4022FA0CFE4EEA030EE8
:1045000001FA07F420FA0CF521FA0CF34FEA1E48E1
:104510002543B3FBF8F92C0C08FB19331FFA8EFA6C
:1045200044EA034309FB0AF49C4202FA07F200FA48
:1045300007F10BD91EEB030309F1FF3080F08780F0
:104540009C4240F28480A9F1020973441B1BADB266
:10455000B3FBF8F008FB103345EA034400FB0AFA0A
:10456000A24508D91EEB040400F1FF336BD2A2452B
:1045700069D90238744440EA0940A0FB0289A4EBDF
:104580000A044C45C2464B4654D351D0002E69D044
:10459000B1EB0A0564EB030404FA0CFCFD40FC409B
:1045A0004CEA0505C6E90054002747E7C2F120039D
:1045B00020FA03F7954001FA02F021FA03F34FEADB
:1045C000154E3843010CB3FBFEF71FFA85F80EFBBE
:1045D000173341EA034107FB08F38B4204FA02F464
:1045E00007D9691807F1FF3C2FD28B422DD9023F22
:1045F0002944CB1A81B2B3FBFEF00EFB103341EA23
:10460000034100FB08F38B4207D9691800F1FF3C16
:1046100017D28B4215D902382944C91A40EA0747F4
:104620003BE73746304609E70746E7E61846FBE62C
:104630004145ABD2B8EB020A69EB0E0201381346D2
:10464000A4E76046E9E7184695E76746D1E7814663
:104650007CE702382C4447E7ACF1020C2B442FE7EF
:10466000384608E73746E9E6704700BF00B583B033
:1046700008F006FF254B26491B68264A2648274C8A
:10468000A1FB03139B09013B536000210723F02585
:1046900080F8235091601360FBF7AAFDFCF73EFD04
:1046A0001F4800F0FBF84FF400412046FCF7F4FCF3
:1046B000FCF72CFE06284FF4804120460DD0FCF775
:1046C000EBFC4FF480512046FCF7E8FCFCF71EFEA3
:1046D00006284FF480412046F1D14FF48051FCF779
:1046E000DBFC4FF480412046FCF7D8FC0DF10700BD
:1046F000FCF774FD0328DBD19DF80700FCF778FD7B
:104700004FF400512046FCF7D3FCD1E71000002005
:10471000D34D621010E000E000ED00E0000C02401C
:1047200094E30008002103E00B4B5B584350043135
:104730000A480B4B42189A42F6D30A4A02E0002379
:1047400042F8043B084B9A42F9D3FBF79DFD00F079
:104750000FF8FFF78BFF704758E7000800000020B4
:10476000FC0A0020FC0A0020B81C0020FEE7000024
:1047700070B50D4E0D4D761BB61006D000240134D9
:1047800055F8043B9847A642F9D1094E094D761BCE
:10479000FBF72CFDB61006D00024013455F8043B7D
:1047A0009847A642F9D170BD58E7000858E70008BD
:1047B00058E7000858E700080EB400B582B003AB14
:1047C000816853F8042B019301F098FD02B05DF865
:1047D00004EB03B0704700BF0FB400B5074983B0C6
:1047E00004AB086853F8042B8168019301F086FD3F
:1047F00003B05DF804EB04B0704700BF4401002033
:1048000070B5054688B008460C46FBF739FE224ACB
:10481000AB6B04940126441C04A906920222039463
:104820000590AC680796CDE901121BB3616EB4F92F
:104830000C30CE079AB201D4900525D5910406D448
:10484000626E43F4005322F40052A381626628464C
:1048500001AA214604F026FE636E00280CBF0A253B
:104860004FF0FF35DA0702D4A3899B0506D5284609
:1048700008B070BD284604F017FCD7E7A06D05F01E
:104880000FF8284608B070BDA06D05F001F8B4F926
:104890000C309AB2D2E700BFACE30008024B0146ED
:1048A0001868FFF7ADBF00BF440100200CB470B51D
:1048B0009CB020AC0B4E54F8042B02912346069179
:1048C0006FF0004502A901940795CDE9045600F068
:1048D0002DF8029B00221A701CB0BDE8704002B097
:1048E000704700BF0802FFFF0EB430B59CB01FAB8D
:1048F0000C4C0D4D53F8042B019301460291069187
:10490000206802A96FF000440794CDE9044500F047
:104910000DF8029B00221A701CB0BDE8304003B0B5
:10492000704700BF440100200802FFFF2DE9F04F4F
:10493000D9B00C460A9193460D93079004F082FF7C
:1049400003681D931846FBF79BFDA3891C901F0667
:1049500003D52369002B00F0528700235E461846DA
:10496000149318931793CDE92D331B93CDE91F337F
:1049700021931E9309932FAB2C9399463378CDE95D
:104980001900002B00F0C982252B344602D11CE00F
:10499000252B03D014F8013F002BF9D1A51B85B1BD
:1049A000DDE92D3201332A44072BC9F80060C9F82C
:1049B0000450CDE92D327CDC09F10809099B2B4418
:1049C00009932378002B00F0A882002367780B93CB
:1049D00098468DF8933004F1010B4FF0FF3A2B25E8
:1049E0000BF1010BA7F120035A2B00F2DB83DFE868
:1049F00013F09C03D903D9039703D903D903D9032F
:104A00007803D903D903AC03A703D9036D0153017C
:104A1000D9033603C600C600C600C600C600C600DD
:104A2000C600C600C600D903D903D903D903D903E8
:104A3000D903D9033B03D9037201EB023B033B03C8
:104A40003B03D903D903D903D903E602D903D90318
:104A50008400D903D903D903BF02D903C503D903FD
:104A6000D903A002D903D903D903D903D903D903A0
:104A7000D903D9033B03D9037201D5003B033B03A0
:104A80003B03B803D5005B00D9031903D903010325
:104A9000860026035B00D903BF025D002401D90311
:104AA000D9033301D9035D0048F020089BF800705A
:104AB00096E72CAA0A99079806F09AF980B90DF1A1
:104AC000BC097BE72CAA5946504606F091F900280C
:104AD00001F0C480109B1BB11099079804F0EEFB05
:104AE0000A9B9B8913F0400F099B18BF4FF0FF33BF
:104AF0000993099859B0BDE8F08F48F0100818F0F4
:104B0000200F00F069850D9C073424F00703D3E9DA
:104B1000004503F108020D9228F480630022002171
:104B20008DF89310BAF1FF3F58A9089100F0A284C4
:104B300054EA050123F0800856D1BAF1000F40F085
:104B40009587002A40F0158513F0010358AE0C93A9
:104B500002D0302306F8013D002310931393CDE9D2
:104B600015330C9B9DF893205345B8BF53460893CB
:104B7000002A00F0C380089B01330893BEE0A7F130
:104B8000300300221BF8017B02EB820203EB42029E
:104B9000A7F13003092BF5D90B9223E743469E0674
:104BA00040F117820D9C073424F00704D4E900017A
:104BB00004F108020D9204460D46002871F100022E
:104BC00005DA2D22644265EB45058DF8932058AA3D
:104BD000BAF1FF3F089200F0E68654EA05014FF073
:104BE000010223F08008A8D0012A00F04784022A9D
:104BF00000F0EB8258A900E03146E20842EA457233
:104C0000E80804F0070305461446303354EA050269
:104C100001F8013C01F1FF36EED118F0010F00F070
:104C2000E482302B00F0E182089A02393023521AD4
:104C300006F8013C0C920E468EE743469E0640F174
:104C4000A2820D9C073424F0070202F10801D2E988
:104C500000450D91012262E7C14B1B9318F0200F14
:104C600000F06D810D9C073424F00703D3E9004563
:104C700003F108020D9218F0010F09D054EA050360
:104C800006D030238DF8957048F002088DF89430E6
:104C900028F48063022242E79BF800702A2F0BF170
:104CA000010201F0F282A7F13003092B93464FF085
:104CB000000A3FF697AE1BF8017B0AEB8A0A03EB6A
:104CC0004A0AA7F13003092BF5D98BE69BF800704F
:104CD00048F0040884E60D98002301688DF89330AD
:104CE0001A468DF8FC100123011DCDE91522CDE9EE
:104CF0000C3108931092924613923FAE18F00203C3
:104D00000E9302D0089B0233089318F084032E9C64
:104D100011933FD10B9B08995D1A002D3ADD102DA0
:104D20002D9A29DD49462046B14610232297079C3B
:104D30000A9E04E0103D102D01F1080118DD01323A
:104D4000884F1030072ACDE92D20C1E90073F1DD2D
:104D50002CAA31462046129306F04AF800287FF428
:104D6000B9AE103D102DDDE92D202FA9129BE6DCF8
:104D7000229F4E460446894601327A4B2C44072A2C
:104D8000CDE92D24C9E9003500F37F859DF89320F6
:104D900009F1080972B12D9A013201340DF1930025
:104DA0000121072ACDE92D24C9E9000100F373830D
:104DB00009F108090E9B6BB12D9B0133023425A923
:104DC0000222072BCDE92D34C9E9001200F36F83CD
:104DD00009F10809119B802B00F06A820C9BAAEB59
:104DE0000305002D35DD102D2D9A5F4B26DD49463C
:104DF0002046B1464FF0100A0A9E1C4604E0103DC2
:104E0000102D01F1080115DD01321030072ACDE91E
:104E10002D20C1E9004AF2DD2CAA3146079805F0A1
:104E2000E7FF00287FF456AE103D102DDDE92D2060
:104E30002FA9E9DC4E4623468946044601322C441C
:104E4000072ACDE92D24C9E9003500F33C8309F197
:104E5000080918F4807F40F0CC812D9B0C9AC9F88A
:104E6000006001331444072B2E94C9F804202D93BD
:104E700000F39E8209F1080918F0040F33D00B9B50
:104E8000089A9D1A002D2EDD102D2D9B21DD102658
:104E9000079FDDF8288004E0103D102D09F1080976
:104EA00017DD01332F4A1034072BCDE92D34C9E922
:104EB0000026F1DD2CAA4146384605F099FF00286E
:104EC0007FF408AE103D102DDDE92D340DF1BC0945
:104ED000E7DC0133234A2C44072BCDE92D34C9E903
:104EE000002500F3A183099B0B9A08998A42ACBF65
:104EF0009B185B180993002C40F0168200232D9319
:104F0000109B1BB11099079804F0D8F90DF1BC095A
:104F10005E463378002B7FF437AD2E9B002B3FF499
:104F2000DFAD0A9C07982CAA214605F061FFA389F2
:104F3000D8E50E4B1B9318F0200F7FF493AE0D9A1B
:104F400018F0100F02F1040340F07C8318F0400FBA
:104F50000D9A00F0738314880D9300258BE600BF33
:104F6000C0E30008F4E3000804E40008D4E3000808
:104F70000D9B1E6800258DF893501C1D002E00F01F
:104F80007484BAF1FF3F00F06186524629463046EC
:104F9000FBF7E6FA1090002800F09587109B9B1B0A
:104FA0000C93AA4623EAE3730D940893CDF840A02E
:104FB000CDF84CA0CDE915AA9DF89320D8E548F08E
:104FC00008089BF800700BE548F010039E063FF5BB
:104FD000E9AD0D99DD0601F1040200F14D835C0697
:104FE0000D9940F14683B1F900400D92E517204636
:104FF0002946E2E50D9A18F0200F52F8043B0D9275
:1050000040F0418318F0100F40F0818518F0400FF8
:1050100040F0328618F4007F00F07985099A1A7002
:105020005E4676E79BF800706C2F03BF9BF801701B
:1050300048F020080BF1010B48F01008D0E40D995E
:10504000BE4B0C681B9347F630020431ADF8942038
:1050500048F002030D910025022278275FE548F011
:1050600080089BF80070BBE40D9CB54B073424F01E
:10507000070CDCE900010CF1080417914FF0FF3236
:1050800021F000411890054608910D94FEF7D6FDD9
:10509000002840F0FF8228460899A94B4FF0FF32C4
:1050A000FEF7AEFD002840F0F582DDE918021A9BFC
:1050B0001799FEF79BFD002840F0E5869DF89320A8
:1050C000A04EA14B002003210891109028F08008E9
:1050D000472FD8BF1E460C9182461390CDE915008C
:1050E00046E5079F384604F0ADFB43681E9318461B
:1050F000FBF7C6F921900446384604F0A3FB836809
:105100002093002C3FF4D2AC9BF80070002B3FF4AE
:1051100067AC1B78002B3FF463AC48F480685FE415
:1051200048F001089BF800705AE49DF893309BF812
:105130000070002B7FF454AC20238DF893304FE4A3
:105140008DF893509BF800704AE40D9B9BF800701B
:105150001A680B92002A03F10403C0F25F830D93D7
:105160003EE49BF80070682F03BF9BF8017048F481
:1051700000780BF1010B48F0400831E448F01003CF
:105180009E063FF55EAD0D9ADD0602F1040100F1C9
:1051900061825C060D9A40F15A8214880D910025B7
:1051A0000122BCE4002F3FF4B8AE002301211A46CF
:1051B00008918DF8FC708DF8933010939A461393F4
:1051C000CDE915330C913FAE98E51B9858AE2309F5
:1051D00004F00F0143EA05732A091C461546435C97
:1051E00006F8013D54EA0503F1D1089B9B1B0C9383
:1051F000B2E4652F40F3E880DDE918021A9B1799A5
:10520000FEF7EAFC002800F06A812D9B4F4AC9F89E
:105210000020013301340122072BCDE92D34C9F8D8
:10522000042000F34F8409F10809269B149A2E9C50
:10523000934280F2F4812D9B1D9AC9F800201C9A9C
:10524000C9F8042001331444072BCDE92D3400F3B1
:10525000008309F10809149B5D1E002D7FF70CAE39
:10526000102D2D9A3A4B40F31684194610262346EA
:10527000079FDDF828A00C4605E009F10809103D5C
:10528000102D40F3058401321033072ACDE92D2378
:10529000C9E90046F1DD2CAA5146384605F0A8FDC3
:1052A00000287FF417ACDDE92D230DF1BC09E6E7FA
:1052B0000B9B089A9D1A002D7FF790AD102D2D9A0B
:1052C000234B25DD49462046B1461C460A9E04E094
:1052D000103D102D01F1080116DD013210301023B0
:1052E000072ACDE92D200C604B60F1DD2CAA314658
:1052F000079805F07DFD00287FF4ECAB103D102DE4
:10530000DDE92D202FA9E8DC4E46234689460446D8
:1053100001322C44072ACDE92D24C9E9003500F3D8
:10532000C48309F1080959E52CAA0A99079805F0E0
:105330005FFD00283FF4E2ADFFF7CCBBC0E30008FF
:10534000FFFFEF7FB4E30008B0E30008F0E30008DC
:1053500004E400082CAA0A99079805F049FD0028E2
:105360007FF4B8AB269B2E9C0DF1BC091BB9149A97
:10537000002A00F099842D9A1D99C9F800101C99F3
:10538000C9F8041001320C44072A2E942D9200F320
:10539000A78509F10809002BC0F21E86149B013273
:1053A0001C44072ACDE92D24C9E900637FF762ADCB
:1053B0002CAA0A99079805F01BFD00287FF48AABF8
:1053C0002E9C0DF1BC0957E5621C0C92149A2D9B82
:1053D000012A03F1010509F1080740F30C810C9A39
:1053E000C9F800600123072DCDE92D52C9F804301A
:1053F00000F322831C9B0C991D9A01351944072D3B
:105400000C91CDE92D51C7E9002300F32283083721
:105410006C1C11940E94149C1A9B1799DDE91802C8
:1054200004F1FF3A07F10809FEF7D6FB002840F027
:10543000A5800C9B0E9CC7F804A053440136072C92
:105440000C933E602E932D9400F3F28107F110032C
:10545000AA1C4F460E9299461F9A0C997A601144E5
:105460000E9A2E9128AB072A0C462D923B607FF7AF
:1054700003AD9DE7012A98467FF4B9AB002D08BF24
:105480000A2C80F0968258AE3034012306F8014D84
:105490000C93FFF761BB2CAA0A99079805F0A8FCAA
:1054A00000287FF417AB2E9C0DF1BC0982E42CAAD6
:1054B0000A99079805F09CFC00287FF40BAB2E9C02
:1054C0000DF1BC0986E42CAA0A99079805F090FC16
:1054D00000287FF4FFAA2E9C0DF1BC09B9E4269B9D
:1054E000002B40F37B81DDE914239342A8BF1346D0
:1054F000002B1D460DDD2D9BC9F8006001332C44A7
:10550000072B2E94C9F804502D9300F3C18409F1A0
:105510000809159B002DA8BF5B1B002B1D4640F3FF
:10552000DC81102D2D9AC04B40F3C38118462146D3
:105530004B461027B146DDF81CA00A9C064604E045
:105540000833103D102D40F3AF8101321031072A8E
:10555000CDE92D21C3E90067F2DD2CAA2146504692
:1055600005F046FC00287FF4B5AADDE92D212FAB1C
:10557000E7E7CDF830A058AEFFF7EEBABAF1000F6A
:105580007FF76AAFBAF1100FA74B40F3598619465F
:1055900010263B460C9ADDF81C900A9C119D0F4684
:1055A00007E00833AAF1100ABAF1100F40F396820F
:1055B00001351032072DCDE92D52C3E90076F0DD1B
:1055C0002CAA2146484605F013FC00287FF482AA45
:1055D000DDE92D522FABE5E70D9A18F0100F02F11F
:1055E000040341D118F0400F0D9A39D014880D935F
:1055F0000025FFF791BA18F0010F7FF4F0AE0C9977
:10560000C9F800600122072DCDE92D51C9F8042009
:1056100000F30E8102330E9309F110091CE718F014
:10562000010F7FF408AE27E42CAA0A99079805F029
:10563000DFFB00287FF44EAA2E9C54E418F4007F70
:1056400040F0158314680D930025FFF714BB9805EF
:1056500000F1178314680D9101220025FFF75FBA4E
:1056600018F4007F40F01B8314680D930025FFF7AA
:1056700053BA980500F10B830C680D92E51720468C
:105680002946FFF79ABA099A1046D117C3E90001D3
:105690005E463EE4189C22462046179C234621463F
:1056A000FEF7CCFA002840F0A185612F00F00684B7
:1056B000412F00F0FF8227F0200348F48072BAF1F6
:1056C000FF3F08931292179D00F02085472B00F0B2
:1056D0001785002DC0F2E983CDE91000189B0C93CB
:1056E000662F00F0DC84462F00F06785089B0C9A3B
:1056F000452B06BF0AF101030E93CDF838A02AA866
:1057000027A90E9C0490039126A8022102902B4603
:1057100001940091079802F077FC672F064640F04D
:105720009A8518F0010F40F0F5842A9B40469B1B98
:10573000DDF848801493269B1593089B472B00F0B7
:105740006E83089B462B00F003840899159BFAB2E0
:10575000412908BF0F3203F1FF3306BFD2B2012146
:105760000021002B2693B8BF159B8DF8A020BABF4F
:10577000C3F101032D222B22092B8DF8A12000F368
:10578000E584002940F06F8530228DF8A2200DF1CC
:10579000A30230331370531C28AA9B1A149A1F9328
:1057A000012A13440C9340F32D850C9B1C9A13443F
:1057B0000C9300231393CDE915330C9B20F48060E8
:1057C00023EAE37340F480780893119B002B40F0A8
:1057D00039839A469DF89320FFF7CAB92D9A134949
:1057E000C9F80010013201340121072ACDE92D2426
:1057F000C9F804103FF7AEAD09F10809B6E540213C
:10580000079804F0C7F80A9B18601861002800F098
:1058100065850A9A40235361FFF79FB852420B9265
:105820000D93FFF755BA00BF04E40008F0E3000849
:105830002CAA0A99079805F0DBFA00287FF44AA9F8
:10584000DDE92D3201330C920E930DF1C4092FAF17
:1058500002E62CAA0A99079805F0CAFA00287FF4F4
:1058600039A92E9C0DF1BC09F5E45346062B28BF3F
:105870000623B2461396CDE9156610963246089374
:10588000CDE90C34A44EFFF773B92CAA0A990798F6
:1058900005F0AEFA00287FF41DA99DF893202E9CF8
:1058A0000DF1BC09FFF776BA0C4631464E469946D3
:1058B0000B4601322C44072ACDE92D24C9E90035D5
:1058C00040F3D2812CAA0A99079805F091FA002892
:1058D0007FF400A92E9C0DF1BC09159B18F4806F74
:1058E00033449A4640F01C81269B149A934249DB2C
:1058F00018F0010F46D1149AB518A5EB0A05D31A72
:105900009D42A8BF1D46002D0DDD2D9AC9F800A0AF
:1059100001322C44072A2E94C9F804502D9200F32A
:10592000368309F10809002DACBF5D1B1D46002D13
:105930007FF7A2AA102D2D9A784B40F3AC80194620
:1059400010262346079FDDF828A00C4605E009F144
:105950000809103D102D40F39B8001321033072AB7
:10596000CDE92D23C9E90046F1DD2CAA5146384680
:1059700005F03EFA00287FF4ADA8DDE92D230DF1F6
:10598000BC09E6E72D9A1D99C9F800101C99C9F8C1
:10599000041001320C44072A2E942D9200F3AF829A
:1059A00009F10809A7E7002D08BF0A2C9846FFF463
:1059B0006AAD08F480630022CDF830901097CDF8DE
:1059C000388058AE9146DDF880801F460AE00023FB
:1059D000204629460A22FEF7C9FC04460D4654EA31
:1059E000050347D00A22002320462946FEF7BEFCC5
:1059F000303206F8012C09F10109013E002FE6D0F2
:105A000098F800309945E2D1B9F1FF0FDFD0002DB1
:105A100008BF0A2CDBD3219B1E99F61A1A46304682
:105A200005F0B4F998F80130002B00F0878308F1F5
:105A300001084FF00009CAE72CAA0A99079805F057
:105A4000D7F900287FF446A82E9B0C932D9D2FAFED
:105A5000D0E42CAA0A99079805F0CAF900287FF427
:105A600039A82E9B0C932D9D2FAFD1E4012A7FF4F2
:105A7000BEA808E5089BCDF850909B1BDDF8309040
:105A8000CDF88080109FDDF838800C93FFF764B864
:105A900021461C460B4601322C44072ACDE92D2411
:105AA000C9E900357FF7E6A982E42CAA0A9907988C
:105AB00005F09EF900287FF40DA82E9C0DF1BC097D
:105AC000FFF78CB92CAA0A99079805F091F90028DC
:105AD0007FF400A80DF1BC09FFF7A7BB0C923A4672
:105AE0001F4613466A1C0E9207F108020C99C7E97B
:105AF000003A0E9B2D935144072B0C912E913FF7AA
:105B000097AE01330E9302F108091746A4E4099AEF
